{
  "contractName": "AdminControl",
  "abi": [
    {
      "inputs": [],
      "stateMutability": "nonpayable",
      "type": "constructor"
    },
    {
      "inputs": [
        {
          "internalType": "address",
          "name": "",
          "type": "address"
        }
      ],
      "name": "isAdmin",
      "outputs": [
        {
          "internalType": "bool",
          "name": "",
          "type": "bool"
        }
      ],
      "stateMutability": "view",
      "type": "function",
      "constant": true
    },
    {
      "inputs": [],
      "name": "superAdmin",
      "outputs": [
        {
          "internalType": "address",
          "name": "",
          "type": "address"
        }
      ],
      "stateMutability": "view",
      "type": "function",
      "constant": true
    },
    {
      "inputs": [
        {
          "internalType": "address",
          "name": "_admin",
          "type": "address"
        }
      ],
      "name": "addAdmin",
      "outputs": [],
      "stateMutability": "nonpayable",
      "type": "function"
    },
    {
      "inputs": [
        {
          "internalType": "address",
          "name": "_admin",
          "type": "address"
        }
      ],
      "name": "removeAdmin",
      "outputs": [],
      "stateMutability": "nonpayable",
      "type": "function"
    },
    {
      "inputs": [
        {
          "internalType": "address",
          "name": "_addr",
          "type": "address"
        }
      ],
      "name": "checkAdmin",
      "outputs": [
        {
          "internalType": "bool",
          "name": "",
          "type": "bool"
        }
      ],
      "stateMutability": "view",
      "type": "function",
      "constant": true
    }
  ],
  "bytecode": "0x608060405234801561001057600080fd5b50336000806101000a81548173ffffffffffffffffffffffffffffffffffffffff021916908373ffffffffffffffffffffffffffffffffffffffff16021790555060018060003373ffffffffffffffffffffffffffffffffffffffff1673ffffffffffffffffffffffffffffffffffffffff16815260200190815260200160002060006101000a81548160ff021916908315150217905550610578806100b76000396000f3fe608060405234801561001057600080fd5b50600436106100575760003560e01c80631785f53c1461005c57806324d7806c1461007857806329575f6a146100a857806370480275146100c65780639026dee8146100e2575b600080fd5b61007660048036038101906100719190610353565b610112565b005b610092600480360381019061008d9190610353565b6101db565b60405161009f9190610481565b60405180910390f35b6100b06101fb565b6040516100bd9190610466565b60405180910390f35b6100e060048036038101906100db9190610353565b61021f565b005b6100fc60048036038101906100f79190610353565b6102e8565b6040516101099190610481565b60405180910390f35b60008054906101000a900473ffffffffffffffffffffffffffffffffffffffff1673ffffffffffffffffffffffffffffffffffffffff163373ffffffffffffffffffffffffffffffffffffffff16146101a0576040517f08c379a00000000000000000000000000000000000000000000000000000000081526004016101979061049c565b60405180910390fd5b6040517f08c379a00000000000000000000000000000000000000000000000000000000081526004016101d2906104bc565b60405180910390fd5b60016020528060005260406000206000915054906101000a900460ff1681565b60008054906101000a900473ffffffffffffffffffffffffffffffffffffffff1681565b60008054906101000a900473ffffffffffffffffffffffffffffffffffffffff1673ffffffffffffffffffffffffffffffffffffffff163373ffffffffffffffffffffffffffffffffffffffff16146102ad576040517f08c379a00000000000000000000000000000000000000000000000000000000081526004016102a49061049c565b60405180910390fd5b6040517f08c379a00000000000000000000000000000000000000000000000000000000081526004016102df906104bc565b60405180910390fd5b6000600160008373ffffffffffffffffffffffffffffffffffffffff1673ffffffffffffffffffffffffffffffffffffffff16815260200190815260200160002060009054906101000a900460ff169050919050565b60008135905061034d8161052b565b92915050565b60006020828403121561036557600080fd5b60006103738482850161033e565b91505092915050565b610385816104ed565b82525050565b610394816104ff565b82525050565b60006103a76028836104dc565b91507f4f6e6c792053757065722041646d696e2063616e20706572666f726d2074686960008301527f7320616374696f6e0000000000000000000000000000000000000000000000006020830152604082019050919050565b600061040d6025836104dc565b91507f53757065722041646d696e2063616e6e6f742072656d6f7665207468656d736560008301527f6c766573210000000000000000000000000000000000000000000000000000006020830152604082019050919050565b600060208201905061047b600083018461037c565b92915050565b6000602082019050610496600083018461038b565b92915050565b600060208201905081810360008301526104b58161039a565b9050919050565b600060208201905081810360008301526104d581610400565b9050919050565b600082825260208201905092915050565b60006104f88261050b565b9050919050565b60008115159050919050565b600073ffffffffffffffffffffffffffffffffffffffff82169050919050565b610534816104ed565b811461053f57600080fd5b5056fea2646970667358221220ec4273a09853c1f986caa0fcd9adf31ea23a1323d65b588d3ac27a8014cb3d7764736f6c63430008000033",
  "immutableReferences": {},
  "source": "// SPDX-License-Identifier: MIT\r\npragma solidity ^0.8.0;\r\n\r\ncontract AdminControl {\r\n    address public superAdmin;\r\n\r\n    mapping(address => bool) public isAdmin;\r\n\r\n    modifier onlySuperAdmin() {\r\n        require(msg.sender == superAdmin, \"Only Super Admin can perform this action\");\r\n        revert(\"Super Admin cannot remove themselves!\");\r\n        _;\r\n    }\r\n\r\n    modifier onlyAdmin() {\r\n        require(isAdmin[msg.sender], \"Only Admin can perform this action\");\r\n        _;\r\n    }\r\n\r\n    constructor() {\r\n        superAdmin = msg.sender;\r\n        isAdmin[msg.sender] = true;\r\n    }\r\n\r\n    function addAdmin(address _admin) external onlySuperAdmin {\r\n        isAdmin[_admin] = true;\r\n    }\r\n\r\n    function removeAdmin(address _admin) external onlySuperAdmin {\r\n        isAdmin[_admin] = false;\r\n    }\r\n\r\n    function checkAdmin(address _addr) external view returns (bool) {\r\n        return isAdmin[_addr];\r\n    }\r\n}\r\n",
  "sourcePath": "C:\\Users\\raman\\Downloads\\dVoting-master\\dVoting-master\\contracts\\AdminControl.sol",
  "compiler": {
    "name": "solc",
    "version": "0.8.0+commit.c7dfd78e.Emscripten.clang"
  },
  "schemaVersion": "3.4.16",
  "updatedAt": "2025-05-23T17:13:44.359Z",
  "networkType": "ethereum",
  "devdoc": {
    "kind": "dev",
    "methods": {},
    "version": 1
  },
  "userdoc": {
    "kind": "user",
    "methods": {},
    "version": 1
  }
}