{
  "contractName": "CandidateRegistration",
  "abi": [
    {
      "inputs": [],
      "stateMutability": "nonpayable",
      "type": "constructor"
    },
    {
      "anonymous": false,
      "inputs": [
        {
          "indexed": false,
          "internalType": "uint256",
          "name": "id",
          "type": "uint256"
        },
        {
          "indexed": false,
          "internalType": "string",
          "name": "name",
          "type": "string"
        },
        {
          "indexed": false,
          "internalType": "address",
          "name": "walletAddress",
          "type": "address"
        },
        {
          "indexed": false,
          "internalType": "uint256",
          "name": "electionId",
          "type": "uint256"
        }
      ],
      "name": "CandidateRegistered",
      "type": "event"
    },
    {
      "inputs": [],
      "name": "admin",
      "outputs": [
        {
          "internalType": "address",
          "name": "",
          "type": "address"
        }
      ],
      "stateMutability": "view",
      "type": "function",
      "constant": true
    },
    {
      "inputs": [],
      "name": "candidateCount",
      "outputs": [
        {
          "internalType": "uint256",
          "name": "",
          "type": "uint256"
        }
      ],
      "stateMutability": "view",
      "type": "function",
      "constant": true
    },
    {
      "inputs": [
        {
          "internalType": "uint256",
          "name": "",
          "type": "uint256"
        }
      ],
      "name": "candidates",
      "outputs": [
        {
          "internalType": "uint256",
          "name": "id",
          "type": "uint256"
        },
        {
          "internalType": "string",
          "name": "name",
          "type": "string"
        },
        {
          "internalType": "address",
          "name": "walletAddress",
          "type": "address"
        },
        {
          "internalType": "uint256",
          "name": "electionId",
          "type": "uint256"
        }
      ],
      "stateMutability": "view",
      "type": "function",
      "constant": true
    },
    {
      "inputs": [
        {
          "internalType": "address",
          "name": "",
          "type": "address"
        }
      ],
      "name": "hasRegisteredAsCandidate",
      "outputs": [
        {
          "internalType": "bool",
          "name": "",
          "type": "bool"
        }
      ],
      "stateMutability": "view",
      "type": "function",
      "constant": true
    },
    {
      "inputs": [],
      "name": "nominationOpen",
      "outputs": [
        {
          "internalType": "bool",
          "name": "",
          "type": "bool"
        }
      ],
      "stateMutability": "view",
      "type": "function",
      "constant": true
    },
    {
      "inputs": [
        {
          "internalType": "bool",
          "name": "_status",
          "type": "bool"
        }
      ],
      "name": "toggleNomination",
      "outputs": [],
      "stateMutability": "nonpayable",
      "type": "function"
    },
    {
      "inputs": [
        {
          "internalType": "address",
          "name": "_candidate",
          "type": "address"
        },
        {
          "internalType": "string",
          "name": "_name",
          "type": "string"
        },
        {
          "internalType": "uint256",
          "name": "_electionId",
          "type": "uint256"
        }
      ],
      "name": "registerCandidateFor",
      "outputs": [],
      "stateMutability": "nonpayable",
      "type": "function"
    },
    {
      "inputs": [
        {
          "internalType": "uint256",
          "name": "_electionId",
          "type": "uint256"
        }
      ],
      "name": "getCandidatesByElectionId",
      "outputs": [
        {
          "components": [
            {
              "internalType": "uint256",
              "name": "id",
              "type": "uint256"
            },
            {
              "internalType": "string",
              "name": "name",
              "type": "string"
            },
            {
              "internalType": "address",
              "name": "walletAddress",
              "type": "address"
            },
            {
              "internalType": "uint256",
              "name": "electionId",
              "type": "uint256"
            }
          ],
          "internalType": "struct CandidateRegistration.Candidate[]",
          "name": "",
          "type": "tuple[]"
        }
      ],
      "stateMutability": "view",
      "type": "function",
      "constant": true
    },
    {
      "inputs": [
        {
          "internalType": "address",
          "name": "_candidate",
          "type": "address"
        }
      ],
      "name": "isCandidate",
      "outputs": [
        {
          "internalType": "bool",
          "name": "",
          "type": "bool"
        }
      ],
      "stateMutability": "view",
      "type": "function",
      "constant": true
    }
  ],
  "bytecode": "0x608060405234801561001057600080fd5b5033600360006101000a81548173ffffffffffffffffffffffffffffffffffffffff021916908373ffffffffffffffffffffffffffffffffffffffff16021790555061137f806100616000396000f3fe608060405234801561001057600080fd5b50600436106100935760003560e01c8063a9a981a311610066578063a9a981a314610149578063ba65553214610167578063c870921914610183578063d51b9e931461019f578063f851a440146101cf57610093565b806309e53189146100985780633477ee2e146100c857806351468c60146100fb5780639696acc61461012b575b600080fd5b6100b260048036038101906100ad9190610c9d565b6101ed565b6040516100bf9190610f96565b60405180910390f35b6100e260048036038101906100dd9190610c9d565b610513565b6040516100f2949392919061104e565b60405180910390f35b61011560048036038101906101109190610be4565b6105fb565b6040516101229190610fb8565b60405180910390f35b61013361061b565b6040516101409190610fb8565b60405180910390f35b61015161062e565b60405161015e9190611033565b60405180910390f35b610181600480360381019061017c9190610c74565b610634565b005b61019d60048036038101906101989190610c0d565b6106e1565b005b6101b960048036038101906101b49190610be4565b6109e0565b6040516101c69190610fb8565b60405180910390f35b6101d7610a36565b6040516101e49190610f7b565b60405180910390f35b60606000805b600254811015610272578360008281548110610238577f4e487b7100000000000000000000000000000000000000000000000000000000600052603260045260246000fd5b906000526020600020906004020160030154141561025f57818061025b9061121d565b9250505b808061026a9061121d565b9150506101f3565b5060008167ffffffffffffffff8111156102b5577f4e487b7100000000000000000000000000000000000000000000000000000000600052604160045260246000fd5b6040519080825280602002602001820160405280156102ee57816020015b6102db610a5c565b8152602001906001900390816102d35790505b5090506000805b60025481101561050757856000828154811061033a577f4e487b7100000000000000000000000000000000000000000000000000000000600052603260045260246000fd5b90600052602060002090600402016003015414156104f4576000818154811061038c577f4e487b7100000000000000000000000000000000000000000000000000000000600052603260045260246000fd5b9060005260206000209060040201604051806080016040529081600082015481526020016001820180546103bf906111eb565b80601f01602080910402602001604051908101604052809291908181526020018280546103eb906111eb565b80156104385780601f1061040d57610100808354040283529160200191610438565b820191906000526020600020905b81548152906001019060200180831161041b57829003601f168201915b505050505081526020016002820160009054906101000a900473ffffffffffffffffffffffffffffffffffffffff1673ffffffffffffffffffffffffffffffffffffffff1673ffffffffffffffffffffffffffffffffffffffff1681526020016003820154815250508383815181106104da577f4e487b7100000000000000000000000000000000000000000000000000000000600052603260045260246000fd5b602002602001018190525081806104f09061121d565b9250505b80806104ff9061121d565b9150506102f5565b50819350505050919050565b6000818154811061052357600080fd5b906000526020600020906004020160009150905080600001549080600101805461054c906111eb565b80601f0160208091040260200160405190810160405280929190818152602001828054610578906111eb565b80156105c55780601f1061059a576101008083540402835291602001916105c5565b820191906000526020600020905b8154815290600101906020018083116105a857829003601f168201915b5050505050908060020160009054906101000a900473ffffffffffffffffffffffffffffffffffffffff16908060030154905084565b60016020528060005260406000206000915054906101000a900460ff1681565b600360149054906101000a900460ff1681565b60025481565b600360009054906101000a900473ffffffffffffffffffffffffffffffffffffffff1673ffffffffffffffffffffffffffffffffffffffff163373ffffffffffffffffffffffffffffffffffffffff16146106c4576040517f08c379a00000000000000000000000000000000000000000000000000000000081526004016106bb90611013565b60405180910390fd5b80600360146101000a81548160ff02191690831515021790555050565b600360009054906101000a900473ffffffffffffffffffffffffffffffffffffffff1673ffffffffffffffffffffffffffffffffffffffff163373ffffffffffffffffffffffffffffffffffffffff1614610771576040517f08c379a000000000000000000000000000000000000000000000000000000000815260040161076890611013565b60405180910390fd5b600360149054906101000a900460ff166107c0576040517f08c379a00000000000000000000000000000000000000000000000000000000081526004016107b790610fd3565b60405180910390fd5b82600160008273ffffffffffffffffffffffffffffffffffffffff1673ffffffffffffffffffffffffffffffffffffffff16815260200190815260200160002060009054906101000a900460ff161561084e576040517f08c379a000000000000000000000000000000000000000000000000000000000815260040161084590610ff3565b60405180910390fd5b600260008154809291906108619061121d565b91905055506000604051806080016040528060025481526020018581526020018673ffffffffffffffffffffffffffffffffffffffff1681526020018481525090806001815401808255809150506001900390600052602060002090600402016000909190919091506000820151816000015560208201518160010190805190602001906108f0929190610a9a565b5060408201518160020160006101000a81548173ffffffffffffffffffffffffffffffffffffffff021916908373ffffffffffffffffffffffffffffffffffffffff16021790555060608201518160030155505060018060008673ffffffffffffffffffffffffffffffffffffffff1673ffffffffffffffffffffffffffffffffffffffff16815260200190815260200160002060006101000a81548160ff0219169083151502179055507f0d2639a6bdbb4aa200e2dfbe15f9ec6c92db7414f4809177fb0ef67c9f20c6326002548486856040516109d2949392919061104e565b60405180910390a150505050565b6000600160008373ffffffffffffffffffffffffffffffffffffffff1673ffffffffffffffffffffffffffffffffffffffff16815260200190815260200160002060009054906101000a900460ff169050919050565b600360009054906101000a900473ffffffffffffffffffffffffffffffffffffffff1681565b60405180608001604052806000815260200160608152602001600073ffffffffffffffffffffffffffffffffffffffff168152602001600081525090565b828054610aa6906111eb565b90600052602060002090601f016020900481019282610ac85760008555610b0f565b82601f10610ae157805160ff1916838001178555610b0f565b82800160010185558215610b0f579182015b82811115610b0e578251825591602001919060010190610af3565b5b509050610b1c9190610b20565b5090565b5b80821115610b39576000816000905550600101610b21565b5090565b6000610b50610b4b846110cb565b61109a565b905082815260208101848484011115610b6857600080fd5b610b738482856111a9565b509392505050565b600081359050610b8a81611304565b92915050565b600081359050610b9f8161131b565b92915050565b600082601f830112610bb657600080fd5b8135610bc6848260208601610b3d565b91505092915050565b600081359050610bde81611332565b92915050565b600060208284031215610bf657600080fd5b6000610c0484828501610b7b565b91505092915050565b600080600060608486031215610c2257600080fd5b6000610c3086828701610b7b565b935050602084013567ffffffffffffffff811115610c4d57600080fd5b610c5986828701610ba5565b9250506040610c6a86828701610bcf565b9150509250925092565b600060208284031215610c8657600080fd5b6000610c9484828501610b90565b91505092915050565b600060208284031215610caf57600080fd5b6000610cbd84828501610bcf565b91505092915050565b6000610cd28383610efa565b905092915050565b610ce381611161565b82525050565b610cf281611161565b82525050565b6000610d038261110b565b610d0d818561112e565b935083602082028501610d1f856110fb565b8060005b85811015610d5b5784840389528151610d3c8582610cc6565b9450610d4783611121565b925060208a01995050600181019050610d23565b50829750879550505050505092915050565b610d7681611173565b82525050565b6000610d8782611116565b610d91818561113f565b9350610da18185602086016111b8565b610daa816112f3565b840191505092915050565b6000610dc082611116565b610dca8185611150565b9350610dda8185602086016111b8565b610de3816112f3565b840191505092915050565b6000610dfb601683611150565b91507f4e6f6d696e6174696f6e732061726520636c6f736564000000000000000000006000830152602082019050919050565b6000610e3b602183611150565b91507f416c7265616479207265676973746572656420617320612063616e646964617460008301527f65000000000000000000000000000000000000000000000000000000000000006020830152604082019050919050565b6000610ea1602283611150565b91507f4f6e6c792061646d696e2063616e20706572666f726d2074686973206163746960008301527f6f6e0000000000000000000000000000000000000000000000000000000000006020830152604082019050919050565b6000608083016000830151610f126000860182610f5d565b5060208301518482036020860152610f2a8282610d7c565b9150506040830151610f3f6040860182610cda565b506060830151610f526060860182610f5d565b508091505092915050565b610f668161119f565b82525050565b610f758161119f565b82525050565b6000602082019050610f906000830184610ce9565b92915050565b60006020820190508181036000830152610fb08184610cf8565b905092915050565b6000602082019050610fcd6000830184610d6d565b92915050565b60006020820190508181036000830152610fec81610dee565b9050919050565b6000602082019050818103600083015261100c81610e2e565b9050919050565b6000602082019050818103600083015261102c81610e94565b9050919050565b60006020820190506110486000830184610f6c565b92915050565b60006080820190506110636000830187610f6c565b81810360208301526110758186610db5565b90506110846040830185610ce9565b6110916060830184610f6c565b95945050505050565b6000604051905081810181811067ffffffffffffffff821117156110c1576110c06112c4565b5b8060405250919050565b600067ffffffffffffffff8211156110e6576110e56112c4565b5b601f19601f8301169050602081019050919050565b6000819050602082019050919050565b600081519050919050565b600081519050919050565b6000602082019050919050565b600082825260208201905092915050565b600082825260208201905092915050565b600082825260208201905092915050565b600061116c8261117f565b9050919050565b60008115159050919050565b600073ffffffffffffffffffffffffffffffffffffffff82169050919050565b6000819050919050565b82818337600083830152505050565b60005b838110156111d65780820151818401526020810190506111bb565b838111156111e5576000848401525b50505050565b6000600282049050600182168061120357607f821691505b6020821081141561121757611216611295565b5b50919050565b60006112288261119f565b91507fffffffffffffffffffffffffffffffffffffffffffffffffffffffffffffffff82141561125b5761125a611266565b5b600182019050919050565b7f4e487b7100000000000000000000000000000000000000000000000000000000600052601160045260246000fd5b7f4e487b7100000000000000000000000000000000000000000000000000000000600052602260045260246000fd5b7f4e487b7100000000000000000000000000000000000000000000000000000000600052604160045260246000fd5b6000601f19601f8301169050919050565b61130d81611161565b811461131857600080fd5b50565b61132481611173565b811461132f57600080fd5b50565b61133b8161119f565b811461134657600080fd5b5056fea26469706673582212206bd580e4511a46bc075807d6f0ad5e010929ed8ed1c565fc84983c53e26e93d264736f6c63430008000033",
  "immutableReferences": {},
  "source": "// SPDX-License-Identifier: MIT\r\npragma solidity ^0.8.0;\r\n\r\ncontract CandidateRegistration {\r\n    struct Candidate {\r\n        uint id;\r\n        string name;\r\n        address walletAddress;\r\n        uint electionId;\r\n    }\r\n\r\n    Candidate[] public candidates;\r\n    mapping(address => bool) public hasRegisteredAsCandidate;\r\n    uint public candidateCount;\r\n    address public admin;\r\n    bool public nominationOpen;\r\n\r\n    event CandidateRegistered(uint id, string name, address walletAddress, uint electionId);\r\n\r\n    modifier onlyAdmin() {\r\n        require(msg.sender == admin, \"Only admin can perform this action\");\r\n        _;\r\n    }\r\n\r\n    modifier duringNominationPeriod() {\r\n        require(nominationOpen, \"Nominations are closed\");\r\n        _;\r\n    }\r\n\r\n    modifier notAlreadyRegistered(address _candidate) {\r\n        require(!hasRegisteredAsCandidate[_candidate], \"Already registered as a candidate\");\r\n        _;\r\n    }\r\n\r\n    constructor() {\r\n        admin = msg.sender;\r\n    }\r\n\r\n    function toggleNomination(bool _status) external onlyAdmin {\r\n        nominationOpen = _status;\r\n    }\r\n\r\n    function registerCandidateFor(address _candidate, string memory _name, uint _electionId)\r\n        external\r\n        onlyAdmin\r\n        duringNominationPeriod\r\n        notAlreadyRegistered(_candidate)\r\n    {\r\n        candidateCount++;\r\n        candidates.push(Candidate(candidateCount, _name, _candidate, _electionId));\r\n        hasRegisteredAsCandidate[_candidate] = true;\r\n\r\n        emit CandidateRegistered(candidateCount, _name, _candidate, _electionId);\r\n    }\r\n\r\n    function getCandidatesByElectionId(uint _electionId) public view returns (Candidate[] memory) {\r\n        uint count = 0;\r\n        for (uint i = 0; i < candidateCount; i++) {\r\n            if (candidates[i].electionId == _electionId) {\r\n                count++;\r\n            }\r\n        }\r\n\r\n        Candidate[] memory electionCandidates = new Candidate[](count);\r\n        uint index = 0;\r\n        for (uint i = 0; i < candidateCount; i++) {\r\n            if (candidates[i].electionId == _electionId) {\r\n                electionCandidates[index] = candidates[i];\r\n                index++;\r\n            }\r\n        }\r\n\r\n        return electionCandidates;\r\n    }\r\n\r\n    function isCandidate(address _candidate) external view returns (bool) {\r\n        return hasRegisteredAsCandidate[_candidate];\r\n    }\r\n}\r\n",
  "sourcePath": "C:\\Users\\raman\\Downloads\\dVoting-master\\dVoting-master\\contracts\\CandidateRegistration.sol",
  "compiler": {
    "name": "solc",
    "version": "0.8.0+commit.c7dfd78e.Emscripten.clang"
  },
  "schemaVersion": "3.4.16",
  "updatedAt": "2025-05-23T17:13:44.309Z",
  "networkType": "ethereum",
  "devdoc": {
    "kind": "dev",
    "methods": {},
    "version": 1
  },
  "userdoc": {
    "kind": "user",
    "methods": {},
    "version": 1
  }
}