{
  "contractName": "Election",
  "abi": [
    {
      "inputs": [],
      "stateMutability": "nonpayable",
      "type": "constructor"
    },
    {
      "anonymous": false,
      "inputs": [
        {
          "indexed": false,
          "internalType": "uint256",
          "name": "endTime",
          "type": "uint256"
        }
      ],
      "name": "ElectionEnded",
      "type": "event"
    },
    {
      "anonymous": false,
      "inputs": [
        {
          "indexed": false,
          "internalType": "uint256",
          "name": "startTime",
          "type": "uint256"
        },
        {
          "indexed": false,
          "internalType": "uint256",
          "name": "endTime",
          "type": "uint256"
        }
      ],
      "name": "ElectionStarted",
      "type": "event"
    },
    {
      "inputs": [],
      "name": "admin",
      "outputs": [
        {
          "internalType": "address",
          "name": "",
          "type": "address"
        }
      ],
      "stateMutability": "view",
      "type": "function",
      "constant": true
    },
    {
      "inputs": [],
      "name": "electionEndTime",
      "outputs": [
        {
          "internalType": "uint256",
          "name": "",
          "type": "uint256"
        }
      ],
      "stateMutability": "view",
      "type": "function",
      "constant": true
    },
    {
      "inputs": [],
      "name": "electionStartTime",
      "outputs": [
        {
          "internalType": "uint256",
          "name": "",
          "type": "uint256"
        }
      ],
      "stateMutability": "view",
      "type": "function",
      "constant": true
    },
    {
      "inputs": [],
      "name": "isElectionEnded",
      "outputs": [
        {
          "internalType": "bool",
          "name": "",
          "type": "bool"
        }
      ],
      "stateMutability": "view",
      "type": "function",
      "constant": true
    },
    {
      "inputs": [],
      "name": "isElectionStarted",
      "outputs": [
        {
          "internalType": "bool",
          "name": "",
          "type": "bool"
        }
      ],
      "stateMutability": "view",
      "type": "function",
      "constant": true
    },
    {
      "inputs": [
        {
          "internalType": "uint256",
          "name": "_durationInSeconds",
          "type": "uint256"
        }
      ],
      "name": "startElection",
      "outputs": [],
      "stateMutability": "nonpayable",
      "type": "function"
    },
    {
      "inputs": [],
      "name": "endElection",
      "outputs": [],
      "stateMutability": "nonpayable",
      "type": "function"
    },
    {
      "inputs": [],
      "name": "getElectionStatus",
      "outputs": [
        {
          "internalType": "string",
          "name": "",
          "type": "string"
        }
      ],
      "stateMutability": "view",
      "type": "function",
      "constant": true
    }
  ],
  "bytecode": "0x608060405234801561001057600080fd5b50336000806101000a81548173ffffffffffffffffffffffffffffffffffffffff021916908373ffffffffffffffffffffffffffffffffffffffff1602179055506000600360006101000a81548160ff0219169083151502179055506000600360016101000a81548160ff021916908315150217905550610a1e806100966000396000f3fe608060405234801561001057600080fd5b50600436106100885760003560e01c80639e136e641161005b5780639e136e64146100ef578063c5980c941461010d578063f851a4401461012b578063fe7ce6911461014957610088565b8063122902a61461008d578063320ad296146100ab57806359f78468146100c95780636d32dc4b146100d3575b600080fd5b610095610167565b6040516100a291906107be565b60405180910390f35b6100b3610261565b6040516100c091906107a3565b60405180910390f35b6100d1610274565b005b6100ed60048036038101906100e891906105ad565b610403565b005b6100f7610555565b6040516101049190610860565b60405180910390f35b61011561055b565b6040516101229190610860565b60405180910390f35b610133610561565b6040516101409190610788565b60405180910390f35b610151610585565b60405161015e91906107a3565b60405180910390f35b6060600360009054906101000a900460ff166101ba576040518060400160405280600b81526020017f4e6f742053746172746564000000000000000000000000000000000000000000815250905061025e565b600360009054906101000a900460ff1680156101e35750600360019054906101000a900460ff16155b15610225576040518060400160405280600781526020017f4f6e676f696e6700000000000000000000000000000000000000000000000000815250905061025e565b6040518060400160405280600581526020017f456e64656400000000000000000000000000000000000000000000000000000081525090505b90565b600360009054906101000a900460ff1681565b60008054906101000a900473ffffffffffffffffffffffffffffffffffffffff1673ffffffffffffffffffffffffffffffffffffffff163373ffffffffffffffffffffffffffffffffffffffff1614610302576040517f08c379a00000000000000000000000000000000000000000000000000000000081526004016102f990610820565b60405180910390fd5b600360009054906101000a900460ff16801561032b5750600360019054906101000a900460ff16155b61036a576040517f08c379a000000000000000000000000000000000000000000000000000000000815260040161036190610840565b60405180910390fd5b6002544210156103af576040517f08c379a00000000000000000000000000000000000000000000000000000000081526004016103a690610800565b60405180910390fd5b6001600360016101000a81548160ff0219169083151502179055507f562cd572b2ba3b666cd989fc4ca98419ec81e75f04528df9d9d76fdb7807ee71426040516103f99190610860565b60405180910390a1565b60008054906101000a900473ffffffffffffffffffffffffffffffffffffffff1673ffffffffffffffffffffffffffffffffffffffff163373ffffffffffffffffffffffffffffffffffffffff1614610491576040517f08c379a000000000000000000000000000000000000000000000000000000000815260040161048890610820565b60405180910390fd5b600360009054906101000a900460ff16156104e1576040517f08c379a00000000000000000000000000000000000000000000000000000000081526004016104d8906107e0565b60405180910390fd5b4260018190555080426104f491906108c0565b6002819055506001600360006101000a81548160ff0219169083151502179055507fff6a30dd22f5e8b783044c7d895a6e8592b55c56f139978d44dc39daf596731f60015460025460405161054a92919061087b565b60405180910390a150565b60025481565b60015481565b60008054906101000a900473ffffffffffffffffffffffffffffffffffffffff1681565b600360019054906101000a900460ff1681565b6000813590506105a7816109d1565b92915050565b6000602082840312156105bf57600080fd5b60006105cd84828501610598565b91505092915050565b6105df81610916565b82525050565b6105ee81610928565b82525050565b60006105ff826108a4565b61060981856108af565b935061061981856020860161095e565b610622816109c0565b840191505092915050565b600061063a6018836108af565b91507f456c656374696f6e20616c7265616479207374617274656400000000000000006000830152602082019050919050565b600061067a6023836108af565b91507f456c656374696f6e206475726174696f6e206e6f742079657420636f6d706c6560008301527f74656400000000000000000000000000000000000000000000000000000000006020830152604082019050919050565b60006106e06022836108af565b91507f4f6e6c792061646d696e2063616e20706572666f726d2074686973206163746960008301527f6f6e0000000000000000000000000000000000000000000000000000000000006020830152604082019050919050565b60006107466017836108af565b91507f456c656374696f6e206973206e6f74206f6e676f696e670000000000000000006000830152602082019050919050565b61078281610954565b82525050565b600060208201905061079d60008301846105d6565b92915050565b60006020820190506107b860008301846105e5565b92915050565b600060208201905081810360008301526107d881846105f4565b905092915050565b600060208201905081810360008301526107f98161062d565b9050919050565b600060208201905081810360008301526108198161066d565b9050919050565b60006020820190508181036000830152610839816106d3565b9050919050565b6000602082019050818103600083015261085981610739565b9050919050565b60006020820190506108756000830184610779565b92915050565b60006040820190506108906000830185610779565b61089d6020830184610779565b9392505050565b600081519050919050565b600082825260208201905092915050565b60006108cb82610954565b91506108d683610954565b9250827fffffffffffffffffffffffffffffffffffffffffffffffffffffffffffffffff0382111561090b5761090a610991565b5b828201905092915050565b600061092182610934565b9050919050565b60008115159050919050565b600073ffffffffffffffffffffffffffffffffffffffff82169050919050565b6000819050919050565b60005b8381101561097c578082015181840152602081019050610961565b8381111561098b576000848401525b50505050565b7f4e487b7100000000000000000000000000000000000000000000000000000000600052601160045260246000fd5b6000601f19601f8301169050919050565b6109da81610954565b81146109e557600080fd5b5056fea26469706673582212207e2bb4df33ac65df03455342a9bcea4d1a7039f41e49dc9e647d78036cff95c864736f6c63430008000033",
  "immutableReferences": {},
  "source": "// SPDX-License-Identifier: MIT\r\npragma solidity ^0.8.0;\r\n\r\ncontract Election {\r\n    address public admin;\r\n    uint public electionStartTime;\r\n    uint public electionEndTime;\r\n    bool public isElectionStarted;\r\n    bool public isElectionEnded;\r\n\r\n    event ElectionStarted(uint startTime, uint endTime);\r\n    event ElectionEnded(uint endTime);\r\n\r\n    modifier onlyAdmin() {\r\n        require(msg.sender == admin, \"Only admin can perform this action\");\r\n        _;\r\n    }\r\n\r\n    modifier electionNotStarted() {\r\n        require(!isElectionStarted, \"Election already started\");\r\n        _;\r\n    }\r\n\r\n    modifier electionOngoing() {\r\n        require(isElectionStarted && !isElectionEnded, \"Election is not ongoing\");\r\n        _;\r\n    }\r\n\r\n    constructor() {\r\n        admin = msg.sender;\r\n        isElectionStarted = false;\r\n        isElectionEnded = false;\r\n    }\r\n\r\n    function startElection(uint _durationInSeconds) public onlyAdmin electionNotStarted {\r\n        electionStartTime = block.timestamp;\r\n        electionEndTime = block.timestamp + _durationInSeconds;\r\n        isElectionStarted = true;\r\n        emit ElectionStarted(electionStartTime, electionEndTime);\r\n    }\r\n\r\n    function endElection() public onlyAdmin electionOngoing {\r\n        require(block.timestamp >= electionEndTime, \"Election duration not yet completed\");\r\n        isElectionEnded = true;\r\n        emit ElectionEnded(block.timestamp);\r\n    }\r\n\r\n    function getElectionStatus() public view returns (string memory) {\r\n        if (!isElectionStarted) {\r\n            return \"Not Started\";\r\n        } else if (isElectionStarted && !isElectionEnded) {\r\n            return \"Ongoing\";\r\n        } else {\r\n            return \"Ended\";\r\n        }\r\n    }\r\n}\r\n",
  "sourcePath": "C:\\Users\\raman\\Downloads\\dVoting-master\\dVoting-master\\contracts\\Election.sol",
  "compiler": {
    "name": "solc",
    "version": "0.8.0+commit.c7dfd78e.Emscripten.clang"
  },
  "schemaVersion": "3.4.16",
  "updatedAt": "2025-05-23T17:13:44.344Z",
  "networkType": "ethereum",
  "devdoc": {
    "kind": "dev",
    "methods": {},
    "version": 1
  },
  "userdoc": {
    "kind": "user",
    "methods": {},
    "version": 1
  }
}