{
  "contractName": "Election",
  "abi": [
    {
      "inputs": [],
      "stateMutability": "nonpayable",
      "type": "constructor"
    },
    {
      "anonymous": false,
      "inputs": [
        {
          "indexed": false,
          "internalType": "string",
          "name": "message",
          "type": "string"
        },
        {
          "indexed": false,
          "internalType": "uint256",
          "name": "electionId",
          "type": "uint256"
        }
      ],
      "name": "DebugMsg",
      "type": "event"
    },
    {
      "anonymous": false,
      "inputs": [
        {
          "indexed": false,
          "internalType": "uint256",
          "name": "electionId",
          "type": "uint256"
        }
      ],
      "name": "ElectionEnded",
      "type": "event"
    },
    {
      "anonymous": false,
      "inputs": [
        {
          "indexed": false,
          "internalType": "uint256",
          "name": "electionId",
          "type": "uint256"
        }
      ],
      "name": "ElectionStarted",
      "type": "event"
    },
    {
      "inputs": [],
      "name": "admin",
      "outputs": [
        {
          "internalType": "address",
          "name": "",
          "type": "address"
        }
      ],
      "stateMutability": "view",
      "type": "function",
      "constant": true
    },
    {
      "inputs": [
        {
          "internalType": "uint256",
          "name": "",
          "type": "uint256"
        }
      ],
      "name": "elections",
      "outputs": [
        {
          "internalType": "bool",
          "name": "started",
          "type": "bool"
        },
        {
          "internalType": "bool",
          "name": "ended",
          "type": "bool"
        },
        {
          "internalType": "uint256",
          "name": "approvedCandidates",
          "type": "uint256"
        }
      ],
      "stateMutability": "view",
      "type": "function",
      "constant": true
    },
    {
      "inputs": [
        {
          "internalType": "uint256",
          "name": "electionId",
          "type": "uint256"
        },
        {
          "internalType": "uint256",
          "name": "approvedCandidateCount",
          "type": "uint256"
        }
      ],
      "name": "startElection",
      "outputs": [],
      "stateMutability": "nonpayable",
      "type": "function"
    },
    {
      "inputs": [
        {
          "internalType": "uint256",
          "name": "electionId",
          "type": "uint256"
        }
      ],
      "name": "endElection",
      "outputs": [],
      "stateMutability": "nonpayable",
      "type": "function"
    },
    {
      "inputs": [
        {
          "internalType": "uint256",
          "name": "electionId",
          "type": "uint256"
        }
      ],
      "name": "getElectionStatus",
      "outputs": [
        {
          "internalType": "string",
          "name": "",
          "type": "string"
        }
      ],
      "stateMutability": "nonpayable",
      "type": "function"
    }
  ],
  "bytecode": "0x608060405234801561001057600080fd5b50336000806101000a81548173ffffffffffffffffffffffffffffffffffffffff021916908373ffffffffffffffffffffffffffffffffffffffff160217905550610e51806100606000396000f3fe608060405234801561001057600080fd5b50600436106100575760003560e01c80630c54b4631461005c57806324785b9e146100785780635e6fef01146100a85780639c98bcbb146100da578063f851a440146100f6575b600080fd5b610076600480360381019061007191906107ed565b610114565b005b610092600480360381019061008d91906107c4565b6103e4565b60405161009f9190610bb9565b60405180910390f35b6100c260048036038101906100bd91906107c4565b6105bf565b6040516100d193929190610b82565b60405180910390f35b6100f460048036038101906100ef91906107c4565b610603565b005b6100fe61078b565b60405161010b9190610b67565b60405180910390f35b60008054906101000a900473ffffffffffffffffffffffffffffffffffffffff1673ffffffffffffffffffffffffffffffffffffffff163373ffffffffffffffffffffffffffffffffffffffff16146101a2576040517f08c379a000000000000000000000000000000000000000000000000000000000815260040161019990610cd3565b60405180910390fd5b816001600082815260200190815260200160002060000160009054906101000a900460ff1615610207576040517f08c379a00000000000000000000000000000000000000000000000000000000081526004016101fe90610c57565b60405180910390fd5b7fea30ed2bcbf4b7c5487f2c07ef639257ebf04932960dff4496fb914f769a6439836040516102369190610ca5565b60405180910390a16002821015610282576040517f08c379a000000000000000000000000000000000000000000000000000000000815260040161027990610c37565b60405180910390fd5b7fea30ed2bcbf4b7c5487f2c07ef639257ebf04932960dff4496fb914f769a6439836040516102b19190610d13565b60405180910390a16040518060600160405280600115158152602001600015158152602001838152506001600085815260200190815260200160002060008201518160000160006101000a81548160ff02191690831515021790555060208201518160000160016101000a81548160ff021916908315150217905550604082015181600101559050507fea30ed2bcbf4b7c5487f2c07ef639257ebf04932960dff4496fb914f769a6439836040516103699190610c09565b60405180910390a17f159eee87222a0489c529f2153c26ad65d718f2cc33ebaa8d399d1dd5b39facaa836040516103a09190610d41565b60405180910390a17fea30ed2bcbf4b7c5487f2c07ef639257ebf04932960dff4496fb914f769a6439836040516103d79190610c77565b60405180910390a1505050565b60606000600160008481526020019081526020016000206040518060600160405290816000820160009054906101000a900460ff161515151581526020016000820160019054906101000a900460ff1615151515815260200160018201548152505090506000816040015114801561046457506000151581600001511515145b801561047857506000151581602001511515145b156104f2577fea30ed2bcbf4b7c5487f2c07ef639257ebf04932960dff4496fb914f769a6439836040516104ac9190610bdb565b60405180910390a16040518060400160405280601181526020017f4e6f20456c656374696f6e20466f756e640000000000000000000000000000008152509150506105ba565b8060000151610539576040518060400160405280600b81526020017f4e6f7420537461727465640000000000000000000000000000000000000000008152509150506105ba565b8060200151610580576040518060400160405280600781526020017f4f6e676f696e67000000000000000000000000000000000000000000000000008152509150506105ba565b6040518060400160405280600581526020017f456e6465640000000000000000000000000000000000000000000000000000008152509150505b919050565b60016020528060005260406000206000915090508060000160009054906101000a900460ff16908060000160019054906101000a900460ff16908060010154905083565b60008054906101000a900473ffffffffffffffffffffffffffffffffffffffff1673ffffffffffffffffffffffffffffffffffffffff163373ffffffffffffffffffffffffffffffffffffffff1614610691576040517f08c379a000000000000000000000000000000000000000000000000000000000815260040161068890610cd3565b60405180910390fd5b806001600082815260200190815260200160002060000160009054906101000a900460ff1680156106e357506001600082815260200190815260200160002060000160019054906101000a900460ff16155b610722576040517f08c379a000000000000000000000000000000000000000000000000000000000815260040161071990610cf3565b60405180910390fd5b600180600084815260200190815260200160002060000160016101000a81548160ff0219169083151502179055507f562cd572b2ba3b666cd989fc4ca98419ec81e75f04528df9d9d76fdb7807ee718260405161077f9190610d41565b60405180910390a15050565b60008054906101000a900473ffffffffffffffffffffffffffffffffffffffff1681565b6000813590506107be81610e04565b92915050565b6000602082840312156107d657600080fd5b60006107e4848285016107af565b91505092915050565b6000806040838503121561080057600080fd5b600061080e858286016107af565b925050602061081f858286016107af565b9150509250929050565b61083281610d78565b82525050565b61084181610d8a565b82525050565b600061085282610d5c565b61085c8185610d67565b935061086c818560208601610dc0565b61087581610df3565b840191505092915050565b600061088d602583610d67565b91507f4e6f20656c656374696f6e206461746120666f756e6420666f7220656c65637460008301527f696f6e49640000000000000000000000000000000000000000000000000000006020830152604082019050919050565b60006108f3601483610d67565b91507f456c656374696f6e4461746120757064617465640000000000000000000000006000830152602082019050919050565b6000610933603083610d67565b91507f4e6f7420656e6f75676820617070726f7665642063616e64696461746573207460008301527f6f20737461727420656c656374696f6e000000000000000000000000000000006020830152604082019050919050565b6000610999601883610d67565b91507f456c656374696f6e20616c7265616479207374617274656400000000000000006000830152602082019050919050565b60006109d9601d83610d67565b91507f456c656374696f6e53746172746564206576656e7420656d69747465640000006000830152602082019050919050565b6000610a19601483610d67565b91507f7374617274456c656374696f6e2063616c6c65640000000000000000000000006000830152602082019050919050565b6000610a59602283610d67565b91507f4f6e6c792061646d696e2063616e20706572666f726d2074686973206163746960008301527f6f6e0000000000000000000000000000000000000000000000000000000000006020830152604082019050919050565b6000610abf601783610d67565b91507f456c656374696f6e206973206e6f74206f6e676f696e670000000000000000006000830152602082019050919050565b6000610aff602383610d67565b91507f417070726f7665642063616e64696461746520636f756e74207375666669636960008301527f656e7400000000000000000000000000000000000000000000000000000000006020830152604082019050919050565b610b6181610db6565b82525050565b6000602082019050610b7c6000830184610829565b92915050565b6000606082019050610b976000830186610838565b610ba46020830185610838565b610bb16040830184610b58565b949350505050565b60006020820190508181036000830152610bd38184610847565b905092915050565b60006040820190508181036000830152610bf481610880565b9050610c036020830184610b58565b92915050565b60006040820190508181036000830152610c22816108e6565b9050610c316020830184610b58565b92915050565b60006020820190508181036000830152610c5081610926565b9050919050565b60006020820190508181036000830152610c708161098c565b9050919050565b60006040820190508181036000830152610c90816109cc565b9050610c9f6020830184610b58565b92915050565b60006040820190508181036000830152610cbe81610a0c565b9050610ccd6020830184610b58565b92915050565b60006020820190508181036000830152610cec81610a4c565b9050919050565b60006020820190508181036000830152610d0c81610ab2565b9050919050565b60006040820190508181036000830152610d2c81610af2565b9050610d3b6020830184610b58565b92915050565b6000602082019050610d566000830184610b58565b92915050565b600081519050919050565b600082825260208201905092915050565b6000610d8382610d96565b9050919050565b60008115159050919050565b600073ffffffffffffffffffffffffffffffffffffffff82169050919050565b6000819050919050565b60005b83811015610dde578082015181840152602081019050610dc3565b83811115610ded576000848401525b50505050565b6000601f19601f8301169050919050565b610e0d81610db6565b8114610e1857600080fd5b5056fea26469706673582212204ded880de67238d2d22a6e249f9e16e766c35cae680a652f8c847647f98099ca64736f6c63430008000033",
  "immutableReferences": {},
  "source": "// SPDX-License-Identifier: MIT\r\npragma solidity ^0.8.0;\r\n\r\ncontract Election {\r\n    address public admin;\r\n    uint constant MINIMUM_REQUIRED_CANDIDATES = 2;\r\n\r\n    struct ElectionData {\r\n        bool started;\r\n        bool ended;\r\n        uint approvedCandidates;\r\n    }\r\n\r\n    mapping(uint => ElectionData) public elections;\r\n\r\n    event ElectionStarted(uint electionId);\r\n    event ElectionEnded(uint electionId);\r\n\r\n    // Debug events for tracing\r\n    event DebugMsg(string message, uint electionId);\r\n\r\n    modifier onlyAdmin() {\r\n        require(msg.sender == admin, \"Only admin can perform this action\");\r\n        _;\r\n    }\r\n\r\n    modifier electionNotStarted(uint electionId) {\r\n        require(!elections[electionId].started, \"Election already started\");\r\n        _;\r\n    }\r\n\r\n    modifier electionOngoing(uint electionId) {\r\n        require(elections[electionId].started && !elections[electionId].ended, \"Election is not ongoing\");\r\n        _;\r\n    }\r\n\r\n    constructor() {\r\n        admin = msg.sender;\r\n    }\r\n\r\n    function startElection(uint electionId, uint approvedCandidateCount) \r\n        public \r\n        onlyAdmin \r\n        electionNotStarted(electionId)\r\n    {\r\n        emit DebugMsg(\"startElection called\", electionId);\r\n\r\n        require(approvedCandidateCount >= MINIMUM_REQUIRED_CANDIDATES, \"Not enough approved candidates to start election\");\r\n        emit DebugMsg(\"Approved candidate count sufficient\", electionId);\r\n\r\n        elections[electionId] = ElectionData({\r\n            started: true,\r\n            ended: false,\r\n            approvedCandidates: approvedCandidateCount\r\n        });\r\n        emit DebugMsg(\"ElectionData updated\", electionId);\r\n\r\n        emit ElectionStarted(electionId);\r\n        emit DebugMsg(\"ElectionStarted event emitted\", electionId);\r\n    }\r\n\r\n    function endElection(uint electionId) \r\n        public \r\n        onlyAdmin \r\n        electionOngoing(electionId) \r\n    {\r\n        elections[electionId].ended = true;\r\n        emit ElectionEnded(electionId);\r\n    }\r\n\r\n   function getElectionStatus(uint electionId) public returns (string memory) {\r\n    ElectionData memory election = elections[electionId];\r\n\r\n    // Check if election data exists or not (based on default struct values)\r\n    if (\r\n        election.approvedCandidates == 0 &&\r\n        election.started == false &&\r\n        election.ended == false\r\n    ) {\r\n        emit DebugMsg(\"No election data found for electionId\", electionId);\r\n        return \"No Election Found\";\r\n    }\r\n\r\n    if (!election.started) {\r\n        return \"Not Started\";\r\n    } else if (!election.ended) {\r\n        return \"Ongoing\";\r\n    } else {\r\n        return \"Ended\";\r\n    }\r\n}\r\n\r\n}\r\n",
  "sourcePath": "G:\\E-Vote\\contracts\\Election.sol",
  "compiler": {
    "name": "solc",
    "version": "0.8.0+commit.c7dfd78e.Emscripten.clang"
  },
  "schemaVersion": "3.4.16",
  "updatedAt": "2025-05-29T08:47:52.982Z",
  "networkType": "ethereum",
  "devdoc": {
    "kind": "dev",
    "methods": {},
    "version": 1
  },
  "userdoc": {
    "kind": "user",
    "methods": {},
    "version": 1
  }
}