{
  "contractName": "Results",
  "abi": [
    {
      "inputs": [],
      "stateMutability": "nonpayable",
      "type": "constructor"
    },
    {
      "inputs": [],
      "name": "admin",
      "outputs": [
        {
          "internalType": "address",
          "name": "",
          "type": "address"
        }
      ],
      "stateMutability": "view",
      "type": "function",
      "constant": true
    },
    {
      "inputs": [
        {
          "internalType": "uint256",
          "name": "",
          "type": "uint256"
        }
      ],
      "name": "candidateResults",
      "outputs": [
        {
          "internalType": "uint256",
          "name": "id",
          "type": "uint256"
        },
        {
          "internalType": "string",
          "name": "name",
          "type": "string"
        },
        {
          "internalType": "uint256",
          "name": "voteCount",
          "type": "uint256"
        }
      ],
      "stateMutability": "view",
      "type": "function",
      "constant": true
    },
    {
      "inputs": [],
      "name": "totalCandidates",
      "outputs": [
        {
          "internalType": "uint256",
          "name": "",
          "type": "uint256"
        }
      ],
      "stateMutability": "view",
      "type": "function",
      "constant": true
    },
    {
      "inputs": [
        {
          "internalType": "uint256",
          "name": "_id",
          "type": "uint256"
        },
        {
          "internalType": "string",
          "name": "_name",
          "type": "string"
        },
        {
          "internalType": "uint256",
          "name": "_voteCount",
          "type": "uint256"
        }
      ],
      "name": "addCandidateResult",
      "outputs": [],
      "stateMutability": "nonpayable",
      "type": "function"
    },
    {
      "inputs": [
        {
          "internalType": "uint256",
          "name": "_id",
          "type": "uint256"
        }
      ],
      "name": "getCandidateResult",
      "outputs": [
        {
          "internalType": "string",
          "name": "name",
          "type": "string"
        },
        {
          "internalType": "uint256",
          "name": "voteCount",
          "type": "uint256"
        }
      ],
      "stateMutability": "view",
      "type": "function",
      "constant": true
    },
    {
      "inputs": [],
      "name": "getTotalCandidates",
      "outputs": [
        {
          "internalType": "uint256",
          "name": "",
          "type": "uint256"
        }
      ],
      "stateMutability": "view",
      "type": "function",
      "constant": true
    }
  ],
  "bytecode": "0x608060405234801561001057600080fd5b50336000806101000a81548173ffffffffffffffffffffffffffffffffffffffff021916908373ffffffffffffffffffffffffffffffffffffffff1602179055506109aa806100606000396000f3fe608060405234801561001057600080fd5b50600436106100625760003560e01c80630deb56ab146100675780631fcdda0b146100855780633866965c146100b7578063ba11154d146100d5578063e93654d1146100f1578063f851a44014610122575b600080fd5b61006f610140565b60405161007c91906106f0565b60405180910390f35b61009f600480360381019061009a9190610538565b61014a565b6040516100ae9392919061070b565b60405180910390f35b6100bf6101fc565b6040516100cc91906106f0565b60405180910390f35b6100ef60048036038101906100ea9190610561565b610202565b005b61010b60048036038101906101069190610538565b610315565b6040516101199291906106a0565b60405180910390f35b61012a6103f4565b6040516101379190610685565b60405180910390f35b6000600254905090565b600160205280600052604060002060009150905080600001549080600101805461017390610844565b80601f016020809104026020016040519081016040528092919081815260200182805461019f90610844565b80156101ec5780601f106101c1576101008083540402835291602001916101ec565b820191906000526020600020905b8154815290600101906020018083116101cf57829003601f168201915b5050505050908060020154905083565b60025481565b60008054906101000a900473ffffffffffffffffffffffffffffffffffffffff1673ffffffffffffffffffffffffffffffffffffffff163373ffffffffffffffffffffffffffffffffffffffff1614610290576040517f08c379a0000000000000000000000000000000000000000000000000000000008152600401610287906106d0565b60405180910390fd5b6000604051806060016040528085815260200184815260200183815250905080600160008681526020019081526020016000206000820151816000015560208201518160010190805190602001906102e9929190610418565b50604082015181600201559050506002600081548092919061030a90610876565b919050555050505050565b6060600080600160008581526020019081526020016000206040518060600160405290816000820154815260200160018201805461035290610844565b80601f016020809104026020016040519081016040528092919081815260200182805461037e90610844565b80156103cb5780601f106103a0576101008083540402835291602001916103cb565b820191906000526020600020905b8154815290600101906020018083116103ae57829003601f168201915b505050505081526020016002820154815250509050806020015181604001519250925050915091565b60008054906101000a900473ffffffffffffffffffffffffffffffffffffffff1681565b82805461042490610844565b90600052602060002090601f016020900481019282610446576000855561048d565b82601f1061045f57805160ff191683800117855561048d565b8280016001018555821561048d579182015b8281111561048c578251825591602001919060010190610471565b5b50905061049a919061049e565b5090565b5b808211156104b757600081600090555060010161049f565b5090565b60006104ce6104c98461077a565b610749565b9050828152602081018484840111156104e657600080fd5b6104f1848285610802565b509392505050565b600082601f83011261050a57600080fd5b813561051a8482602086016104bb565b91505092915050565b6000813590506105328161095d565b92915050565b60006020828403121561054a57600080fd5b600061055884828501610523565b91505092915050565b60008060006060848603121561057657600080fd5b600061058486828701610523565b935050602084013567ffffffffffffffff8111156105a157600080fd5b6105ad868287016104f9565b92505060406105be86828701610523565b9150509250925092565b6105d1816107c6565b82525050565b60006105e2826107aa565b6105ec81856107b5565b93506105fc818560208601610811565b6106058161094c565b840191505092915050565b600061061d6024836107b5565b91507f4f6e6c792061646d696e2063616e2061636365737320746869732066756e637460008301527f696f6e2e000000000000000000000000000000000000000000000000000000006020830152604082019050919050565b61067f816107f8565b82525050565b600060208201905061069a60008301846105c8565b92915050565b600060408201905081810360008301526106ba81856105d7565b90506106c96020830184610676565b9392505050565b600060208201905081810360008301526106e981610610565b9050919050565b60006020820190506107056000830184610676565b92915050565b60006060820190506107206000830186610676565b818103602083015261073281856105d7565b90506107416040830184610676565b949350505050565b6000604051905081810181811067ffffffffffffffff821117156107705761076f61091d565b5b8060405250919050565b600067ffffffffffffffff8211156107955761079461091d565b5b601f19601f8301169050602081019050919050565b600081519050919050565b600082825260208201905092915050565b60006107d1826107d8565b9050919050565b600073ffffffffffffffffffffffffffffffffffffffff82169050919050565b6000819050919050565b82818337600083830152505050565b60005b8381101561082f578082015181840152602081019050610814565b8381111561083e576000848401525b50505050565b6000600282049050600182168061085c57607f821691505b602082108114156108705761086f6108ee565b5b50919050565b6000610881826107f8565b91507fffffffffffffffffffffffffffffffffffffffffffffffffffffffffffffffff8214156108b4576108b36108bf565b5b600182019050919050565b7f4e487b7100000000000000000000000000000000000000000000000000000000600052601160045260246000fd5b7f4e487b7100000000000000000000000000000000000000000000000000000000600052602260045260246000fd5b7f4e487b7100000000000000000000000000000000000000000000000000000000600052604160045260246000fd5b6000601f19601f8301169050919050565b610966816107f8565b811461097157600080fd5b5056fea2646970667358221220913252a3b23c6e9af6c353fc0de2d13c72179a698d2e17b020892f4a1c1fa17c64736f6c63430008000033",
  "immutableReferences": {},
  "source": "// SPDX-License-Identifier: MIT\r\npragma solidity ^0.8.0;\r\n\r\ncontract Results {\r\n    address public admin;\r\n\r\n    struct CandidateResult {\r\n        uint id;\r\n        string name;\r\n        uint voteCount;\r\n    }\r\n\r\n    mapping(uint => CandidateResult) public candidateResults;\r\n    uint public totalCandidates;\r\n\r\n    modifier onlyAdmin() {\r\n        require(msg.sender == admin, \"Only admin can access this function.\");\r\n        _;\r\n    }\r\n\r\n    constructor() {\r\n        admin = msg.sender;\r\n    }\r\n\r\n    function addCandidateResult(\r\n        uint _id,\r\n        string memory _name,\r\n        uint _voteCount\r\n    ) public onlyAdmin {\r\n        CandidateResult memory newResult = CandidateResult({\r\n            id: _id,\r\n            name: _name,\r\n            voteCount: _voteCount\r\n        });\r\n\r\n        candidateResults[_id] = newResult;\r\n        totalCandidates++;\r\n    }\r\n\r\n    function getCandidateResult(uint _id)\r\n        public\r\n        view\r\n        returns (string memory name, uint voteCount)\r\n    {\r\n        CandidateResult memory result = candidateResults[_id];\r\n        return (result.name, result.voteCount);\r\n    }\r\n\r\n    function getTotalCandidates() public view returns (uint) {\r\n        return totalCandidates;\r\n    }\r\n}\r\n",
  "sourcePath": "C:\\Users\\raman\\Downloads\\dVoting-master\\dVoting-master\\contracts\\Result.sol",
  "compiler": {
    "name": "solc",
    "version": "0.8.0+commit.c7dfd78e.Emscripten.clang"
  },
  "schemaVersion": "3.4.16",
  "updatedAt": "2025-05-23T17:13:44.351Z",
  "networkType": "ethereum",
  "devdoc": {
    "kind": "dev",
    "methods": {},
    "version": 1
  },
  "userdoc": {
    "kind": "user",
    "methods": {},
    "version": 1
  }
}