{
  "contractName": "Voting",
  "abi": [
    {
      "inputs": [
        {
          "internalType": "address",
          "name": "_voterContract",
          "type": "address"
        },
        {
          "internalType": "address",
          "name": "_candidateContract",
          "type": "address"
        }
      ],
      "stateMutability": "nonpayable",
      "type": "constructor"
    },
    {
      "anonymous": false,
      "inputs": [
        {
          "indexed": true,
          "internalType": "uint256",
          "name": "electionId",
          "type": "uint256"
        },
        {
          "indexed": true,
          "internalType": "address",
          "name": "candidate",
          "type": "address"
        }
      ],
      "name": "CandidateAdded",
      "type": "event"
    },
    {
      "anonymous": false,
      "inputs": [
        {
          "indexed": true,
          "internalType": "uint256",
          "name": "electionId",
          "type": "uint256"
        },
        {
          "indexed": true,
          "internalType": "address",
          "name": "voter",
          "type": "address"
        },
        {
          "indexed": true,
          "internalType": "address",
          "name": "candidate",
          "type": "address"
        }
      ],
      "name": "VoteCast",
      "type": "event"
    },
    {
      "inputs": [],
      "name": "admin",
      "outputs": [
        {
          "internalType": "address",
          "name": "",
          "type": "address"
        }
      ],
      "stateMutability": "view",
      "type": "function",
      "constant": true
    },
    {
      "inputs": [],
      "name": "candidateContract",
      "outputs": [
        {
          "internalType": "contract ICandidateRegistration",
          "name": "",
          "type": "address"
        }
      ],
      "stateMutability": "view",
      "type": "function",
      "constant": true
    },
    {
      "inputs": [
        {
          "internalType": "uint256",
          "name": "",
          "type": "uint256"
        },
        {
          "internalType": "uint256",
          "name": "",
          "type": "uint256"
        }
      ],
      "name": "candidates",
      "outputs": [
        {
          "internalType": "address",
          "name": "",
          "type": "address"
        }
      ],
      "stateMutability": "view",
      "type": "function",
      "constant": true
    },
    {
      "inputs": [
        {
          "internalType": "uint256",
          "name": "",
          "type": "uint256"
        },
        {
          "internalType": "address",
          "name": "",
          "type": "address"
        }
      ],
      "name": "hasVoted",
      "outputs": [
        {
          "internalType": "bool",
          "name": "",
          "type": "bool"
        }
      ],
      "stateMutability": "view",
      "type": "function",
      "constant": true
    },
    {
      "inputs": [],
      "name": "voterContract",
      "outputs": [
        {
          "internalType": "contract IVoterRegistration",
          "name": "",
          "type": "address"
        }
      ],
      "stateMutability": "view",
      "type": "function",
      "constant": true
    },
    {
      "inputs": [
        {
          "internalType": "uint256",
          "name": "",
          "type": "uint256"
        },
        {
          "internalType": "address",
          "name": "",
          "type": "address"
        }
      ],
      "name": "votesReceived",
      "outputs": [
        {
          "internalType": "uint256",
          "name": "",
          "type": "uint256"
        }
      ],
      "stateMutability": "view",
      "type": "function",
      "constant": true
    },
    {
      "inputs": [
        {
          "internalType": "uint256",
          "name": "electionId",
          "type": "uint256"
        },
        {
          "internalType": "address",
          "name": "_candidate",
          "type": "address"
        }
      ],
      "name": "addCandidate",
      "outputs": [],
      "stateMutability": "nonpayable",
      "type": "function"
    },
    {
      "inputs": [
        {
          "internalType": "uint256",
          "name": "electionId",
          "type": "uint256"
        },
        {
          "internalType": "address",
          "name": "_voter",
          "type": "address"
        },
        {
          "internalType": "address",
          "name": "_candidate",
          "type": "address"
        }
      ],
      "name": "voteFor",
      "outputs": [],
      "stateMutability": "nonpayable",
      "type": "function"
    },
    {
      "inputs": [
        {
          "internalType": "uint256",
          "name": "electionId",
          "type": "uint256"
        },
        {
          "internalType": "address",
          "name": "_candidate",
          "type": "address"
        }
      ],
      "name": "getVotes",
      "outputs": [
        {
          "internalType": "uint256",
          "name": "",
          "type": "uint256"
        }
      ],
      "stateMutability": "view",
      "type": "function",
      "constant": true
    },
    {
      "inputs": [
        {
          "internalType": "uint256",
          "name": "electionId",
          "type": "uint256"
        }
      ],
      "name": "getAllCandidates",
      "outputs": [
        {
          "internalType": "address[]",
          "name": "",
          "type": "address[]"
        }
      ],
      "stateMutability": "view",
      "type": "function",
      "constant": true
    }
  ],
  "bytecode": "0x60806040523480156200001157600080fd5b50604051620015df380380620015df833981810160405281019062000037919062000118565b336000806101000a81548173ffffffffffffffffffffffffffffffffffffffff021916908373ffffffffffffffffffffffffffffffffffffffff16021790555081600160006101000a81548173ffffffffffffffffffffffffffffffffffffffff021916908373ffffffffffffffffffffffffffffffffffffffff16021790555080600260006101000a81548173ffffffffffffffffffffffffffffffffffffffff021916908373ffffffffffffffffffffffffffffffffffffffff1602179055505050620001a7565b60008151905062000112816200018d565b92915050565b600080604083850312156200012c57600080fd5b60006200013c8582860162000101565b92505060206200014f8582860162000101565b9150509250929050565b600062000166826200016d565b9050919050565b600073ffffffffffffffffffffffffffffffffffffffff82169050919050565b620001988162000159565b8114620001a457600080fd5b50565b61142880620001b76000396000f3fe608060405234801561001057600080fd5b506004361061009e5760003560e01c806386ba792f1161006657806386ba792f1461017f578063b4a3a1621461019b578063e6610bc8146101b9578063f851a440146101d7578063f9ded646146101f55761009e565b806333c57ccd146100a357806333dd6bed146100bf57806343859632146100ef578063681973601461011f5780637de142421461014f575b600080fd5b6100bd60048036038101906100b89190610cb3565b610225565b005b6100d960048036038101906100d49190610cb3565b610554565b6040516100e691906111ea565b60405180910390f35b61010960048036038101906101049190610cb3565b610579565b60405161011691906110b9565b60405180910390f35b61013960048036038101906101349190610cb3565b6105a8565b60405161014691906111ea565b60405180910390f35b61016960048036038101906101649190610d3e565b610603565b604051610176919061107c565b60405180910390f35b61019960048036038101906101949190610cef565b610651565b005b6101a3610b11565b6040516101b091906110d4565b60405180910390f35b6101c1610b37565b6040516101ce91906110ef565b60405180910390f35b6101df610b5d565b6040516101ec919061107c565b60405180910390f35b61020f600480360381019061020a9190610c8a565b610b81565b60405161021c9190611097565b60405180910390f35b60008054906101000a900473ffffffffffffffffffffffffffffffffffffffff1673ffffffffffffffffffffffffffffffffffffffff163373ffffffffffffffffffffffffffffffffffffffff16146102b3576040517f08c379a00000000000000000000000000000000000000000000000000000000081526004016102aa9061118a565b60405180910390fd5b600260009054906101000a900473ffffffffffffffffffffffffffffffffffffffff1673ffffffffffffffffffffffffffffffffffffffff1663d51b9e93826040518263ffffffff1660e01b815260040161030e919061107c565b60206040518083038186803b15801561032657600080fd5b505afa15801561033a573d6000803e3d6000fd5b505050506040513d601f19601f8201168201806040525081019061035e9190610c61565b61039d576040517f08c379a0000000000000000000000000000000000000000000000000000000008152600401610394906111ca565b60405180910390fd5b600060056000848152602001908152602001600020905060005b81805490508110156104a8578273ffffffffffffffffffffffffffffffffffffffff16828281548110610413577f4e487b7100000000000000000000000000000000000000000000000000000000600052603260045260246000fd5b9060005260206000200160009054906101000a900473ffffffffffffffffffffffffffffffffffffffff1673ffffffffffffffffffffffffffffffffffffffff161415610495576040517f08c379a000000000000000000000000000000000000000000000000000000000815260040161048c9061116a565b60405180910390fd5b80806104a090611335565b9150506103b7565b5080829080600181540180825580915050600190039060005260206000200160009091909190916101000a81548173ffffffffffffffffffffffffffffffffffffffff021916908373ffffffffffffffffffffffffffffffffffffffff1602179055508173ffffffffffffffffffffffffffffffffffffffff16837fae67715e53b8e1ee028f0b9cddbc208be7d0889701d1ba0ec4414baeaf37b2eb60405160405180910390a3505050565b6004602052816000526040600020602052806000526040600020600091509150505481565b60036020528160005260406000206020528060005260406000206000915091509054906101000a900460ff1681565b60006004600084815260200190815260200160002060008373ffffffffffffffffffffffffffffffffffffffff1673ffffffffffffffffffffffffffffffffffffffff16815260200190815260200160002054905092915050565b6005602052816000526040600020818154811061061f57600080fd5b906000526020600020016000915091509054906101000a900473ffffffffffffffffffffffffffffffffffffffff1681565b600160009054906101000a900473ffffffffffffffffffffffffffffffffffffffff1673ffffffffffffffffffffffffffffffffffffffff1663c3c5a547836040518263ffffffff1660e01b81526004016106ac919061107c565b60206040518083038186803b1580156106c457600080fd5b505afa1580156106d8573d6000803e3d6000fd5b505050506040513d601f19601f820116820180604052508101906106fc9190610c61565b61073b576040517f08c379a00000000000000000000000000000000000000000000000000000000081526004016107329061112a565b60405180910390fd5b600260009054906101000a900473ffffffffffffffffffffffffffffffffffffffff1673ffffffffffffffffffffffffffffffffffffffff1663d51b9e93826040518263ffffffff1660e01b8152600401610796919061107c565b60206040518083038186803b1580156107ae57600080fd5b505afa1580156107c2573d6000803e3d6000fd5b505050506040513d601f19601f820116820180604052508101906107e69190610c61565b610825576040517f08c379a000000000000000000000000000000000000000000000000000000000815260040161081c9061114a565b60405180910390fd5b6003600084815260200190815260200160002060008373ffffffffffffffffffffffffffffffffffffffff1673ffffffffffffffffffffffffffffffffffffffff16815260200190815260200160002060009054906101000a900460ff16156108c3576040517f08c379a00000000000000000000000000000000000000000000000000000000081526004016108ba9061110a565b60405180910390fd5b60006005600085815260200190815260200160002090506000805b828054905081101561099d578373ffffffffffffffffffffffffffffffffffffffff1683828154811061093a577f4e487b7100000000000000000000000000000000000000000000000000000000600052603260045260246000fd5b9060005260206000200160009054906101000a900473ffffffffffffffffffffffffffffffffffffffff1673ffffffffffffffffffffffffffffffffffffffff16141561098a576001915061099d565b808061099590611335565b9150506108de565b50806109de576040517f08c379a00000000000000000000000000000000000000000000000000000000081526004016109d5906111aa565b60405180910390fd5b60016003600087815260200190815260200160002060008673ffffffffffffffffffffffffffffffffffffffff1673ffffffffffffffffffffffffffffffffffffffff16815260200190815260200160002060006101000a81548160ff02191690831515021790555060016004600087815260200190815260200160002060008573ffffffffffffffffffffffffffffffffffffffff1673ffffffffffffffffffffffffffffffffffffffff1681526020019081526020016000206000828254610aa8919061124f565b925050819055508273ffffffffffffffffffffffffffffffffffffffff168473ffffffffffffffffffffffffffffffffffffffff16867fcfff1651bcea794952a516ce970ab17518a85210bd939aaeaac670a8d3e65ec760405160405180910390a45050505050565b600260009054906101000a900473ffffffffffffffffffffffffffffffffffffffff1681565b600160009054906101000a900473ffffffffffffffffffffffffffffffffffffffff1681565b60008054906101000a900473ffffffffffffffffffffffffffffffffffffffff1681565b606060056000838152602001908152602001600020805480602002602001604051908101604052809291908181526020018280548015610c1657602002820191906000526020600020905b8160009054906101000a900473ffffffffffffffffffffffffffffffffffffffff1673ffffffffffffffffffffffffffffffffffffffff1681526020019060010190808311610bcc575b50505050509050919050565b600081359050610c31816113ad565b92915050565b600081519050610c46816113c4565b92915050565b600081359050610c5b816113db565b92915050565b600060208284031215610c7357600080fd5b6000610c8184828501610c37565b91505092915050565b600060208284031215610c9c57600080fd5b6000610caa84828501610c4c565b91505092915050565b60008060408385031215610cc657600080fd5b6000610cd485828601610c4c565b9250506020610ce585828601610c22565b9150509250929050565b600080600060608486031215610d0457600080fd5b6000610d1286828701610c4c565b9350506020610d2386828701610c22565b9250506040610d3486828701610c22565b9150509250925092565b60008060408385031215610d5157600080fd5b6000610d5f85828601610c4c565b9250506020610d7085828601610c4c565b9150509250929050565b6000610d868383610d92565b60208301905092915050565b610d9b816112a5565b82525050565b610daa816112a5565b82525050565b6000610dbb82611215565b610dc5818561122d565b9350610dd083611205565b8060005b83811015610e01578151610de88882610d7a565b9750610df383611220565b925050600181019050610dd4565b5085935050505092915050565b610e17816112b7565b82525050565b610e26816112ed565b82525050565b610e3581611311565b82525050565b6000610e4860288361123e565b91507f566f7465722068617320616c726561647920766f74656420696e20746869732060008301527f656c656374696f6e0000000000000000000000000000000000000000000000006020830152604082019050919050565b6000610eae60168361123e565b91507f4e6f742061207265676973746572656420766f746572000000000000000000006000830152602082019050919050565b6000610eee60118361123e565b91507f496e76616c69642063616e6469646174650000000000000000000000000000006000830152602082019050919050565b6000610f2e60178361123e565b91507f43616e64696461746520616c72656164792061646465640000000000000000006000830152602082019050919050565b6000610f6e60228361123e565b91507f4f6e6c792061646d696e2063616e20706572666f726d2074686973206163746960008301527f6f6e0000000000000000000000000000000000000000000000000000000000006020830152604082019050919050565b6000610fd460238361123e565b91507f43616e646964617465206e6f742070617274206f66207468697320656c65637460008301527f696f6e00000000000000000000000000000000000000000000000000000000006020830152604082019050919050565b600061103a601a8361123e565b91507f4e6f74206120726567697374657265642063616e6469646174650000000000006000830152602082019050919050565b611076816112e3565b82525050565b60006020820190506110916000830184610da1565b92915050565b600060208201905081810360008301526110b18184610db0565b905092915050565b60006020820190506110ce6000830184610e0e565b92915050565b60006020820190506110e96000830184610e1d565b92915050565b60006020820190506111046000830184610e2c565b92915050565b6000602082019050818103600083015261112381610e3b565b9050919050565b6000602082019050818103600083015261114381610ea1565b9050919050565b6000602082019050818103600083015261116381610ee1565b9050919050565b6000602082019050818103600083015261118381610f21565b9050919050565b600060208201905081810360008301526111a381610f61565b9050919050565b600060208201905081810360008301526111c381610fc7565b9050919050565b600060208201905081810360008301526111e38161102d565b9050919050565b60006020820190506111ff600083018461106d565b92915050565b6000819050602082019050919050565b600081519050919050565b6000602082019050919050565b600082825260208201905092915050565b600082825260208201905092915050565b600061125a826112e3565b9150611265836112e3565b9250827fffffffffffffffffffffffffffffffffffffffffffffffffffffffffffffffff0382111561129a5761129961137e565b5b828201905092915050565b60006112b0826112c3565b9050919050565b60008115159050919050565b600073ffffffffffffffffffffffffffffffffffffffff82169050919050565b6000819050919050565b60006112f8826112ff565b9050919050565b600061130a826112c3565b9050919050565b600061131c82611323565b9050919050565b600061132e826112c3565b9050919050565b6000611340826112e3565b91507fffffffffffffffffffffffffffffffffffffffffffffffffffffffffffffffff8214156113735761137261137e565b5b600182019050919050565b7f4e487b7100000000000000000000000000000000000000000000000000000000600052601160045260246000fd5b6113b6816112a5565b81146113c157600080fd5b50565b6113cd816112b7565b81146113d857600080fd5b50565b6113e4816112e3565b81146113ef57600080fd5b5056fea2646970667358221220f434badc6111f08f259a7091c5ba7c2ba65995ae19184f5b74770402785ae34264736f6c63430008000033",
  "immutableReferences": {},
  "source": "// SPDX-License-Identifier: MIT\r\npragma solidity ^0.8.0;\r\n\r\ninterface IVoterRegistration {\r\n    function isRegistered(address _voter) external view returns (bool);\r\n}\r\n\r\ninterface ICandidateRegistration {\r\n    function isCandidate(address _candidate) external view returns (bool);\r\n}\r\n\r\ncontract Voting {\r\n    address public admin;\r\n    IVoterRegistration public voterContract;\r\n    ICandidateRegistration public candidateContract;\r\n\r\n    // Track if a voter has voted in a specific election\r\n    mapping(uint256 => mapping(address => bool)) public hasVoted;\r\n\r\n    // Track votes received by candidate in specific election\r\n    mapping(uint256 => mapping(address => uint256)) public votesReceived;\r\n\r\n    // Candidates list per election\r\n    mapping(uint256 => address[]) public candidates;\r\n\r\n    event VoteCast(uint256 indexed electionId, address indexed voter, address indexed candidate);\r\n    event CandidateAdded(uint256 indexed electionId, address indexed candidate);\r\n\r\n    constructor(address _voterContract, address _candidateContract) {\r\n        admin = msg.sender;\r\n        voterContract = IVoterRegistration(_voterContract);\r\n        candidateContract = ICandidateRegistration(_candidateContract);\r\n    }\r\n\r\n    modifier onlyAdmin() {\r\n        require(msg.sender == admin, \"Only admin can perform this action\");\r\n        _;\r\n    }\r\n\r\n    // Add a candidate to a specific election\r\n    function addCandidate(uint256 electionId, address _candidate) external onlyAdmin {\r\n        require(candidateContract.isCandidate(_candidate), \"Not a registered candidate\");\r\n        // Check candidate not already added to this election\r\n        address[] storage electionCandidates = candidates[electionId];\r\n        for (uint i = 0; i < electionCandidates.length; i++) {\r\n            require(electionCandidates[i] != _candidate, \"Candidate already added\");\r\n        }\r\n        electionCandidates.push(_candidate);\r\n\r\n        emit CandidateAdded(electionId, _candidate);\r\n    }\r\n\r\n    // Vote for a candidate in a specific election\r\n    function voteFor(uint256 electionId, address _voter, address _candidate) external {\r\n        require(voterContract.isRegistered(_voter), \"Not a registered voter\");\r\n        require(candidateContract.isCandidate(_candidate), \"Invalid candidate\");\r\n        require(!hasVoted[electionId][_voter], \"Voter has already voted in this election\");\r\n\r\n        // Check candidate is part of this election\r\n        address[] storage electionCandidates = candidates[electionId];\r\n        bool candidateExists = false;\r\n        for (uint i = 0; i < electionCandidates.length; i++) {\r\n            if (electionCandidates[i] == _candidate) {\r\n                candidateExists = true;\r\n                break;\r\n            }\r\n        }\r\n        require(candidateExists, \"Candidate not part of this election\");\r\n\r\n        hasVoted[electionId][_voter] = true;\r\n        votesReceived[electionId][_candidate] += 1;\r\n\r\n        emit VoteCast(electionId, _voter, _candidate);\r\n    }\r\n\r\n    // Get votes for candidate in election\r\n    function getVotes(uint256 electionId, address _candidate) external view returns (uint256) {\r\n        return votesReceived[electionId][_candidate];\r\n    }\r\n\r\n    // Get all candidates in election\r\n    function getAllCandidates(uint256 electionId) external view returns (address[] memory) {\r\n        return candidates[electionId];\r\n    }\r\n}\r\n",
  "sourcePath": "G:\\E-Vote\\contracts\\Voting.sol",
  "compiler": {
    "name": "solc",
    "version": "0.8.0+commit.c7dfd78e.Emscripten.clang"
  },
  "schemaVersion": "3.4.16",
  "updatedAt": "2025-05-30T17:47:44.664Z",
  "networkType": "ethereum",
  "devdoc": {
    "kind": "dev",
    "methods": {},
    "version": 1
  },
  "userdoc": {
    "kind": "user",
    "methods": {},
    "version": 1
  }
}