{
  "contractName": "Voting",
  "abi": [
    {
      "inputs": [
        {
          "internalType": "address",
          "name": "_voterContract",
          "type": "address"
        },
        {
          "internalType": "address",
          "name": "_candidateContract",
          "type": "address"
        }
      ],
      "stateMutability": "nonpayable",
      "type": "constructor"
    },
    {
      "anonymous": false,
      "inputs": [
        {
          "indexed": true,
          "internalType": "address",
          "name": "voter",
          "type": "address"
        },
        {
          "indexed": true,
          "internalType": "address",
          "name": "candidate",
          "type": "address"
        }
      ],
      "name": "VoteCast",
      "type": "event"
    },
    {
      "inputs": [],
      "name": "admin",
      "outputs": [
        {
          "internalType": "address",
          "name": "",
          "type": "address"
        }
      ],
      "stateMutability": "view",
      "type": "function",
      "constant": true
    },
    {
      "inputs": [],
      "name": "candidateContract",
      "outputs": [
        {
          "internalType": "contract ICandidateRegistration",
          "name": "",
          "type": "address"
        }
      ],
      "stateMutability": "view",
      "type": "function",
      "constant": true
    },
    {
      "inputs": [
        {
          "internalType": "uint256",
          "name": "",
          "type": "uint256"
        }
      ],
      "name": "candidates",
      "outputs": [
        {
          "internalType": "address",
          "name": "",
          "type": "address"
        }
      ],
      "stateMutability": "view",
      "type": "function",
      "constant": true
    },
    {
      "inputs": [
        {
          "internalType": "address",
          "name": "",
          "type": "address"
        }
      ],
      "name": "hasVoted",
      "outputs": [
        {
          "internalType": "bool",
          "name": "",
          "type": "bool"
        }
      ],
      "stateMutability": "view",
      "type": "function",
      "constant": true
    },
    {
      "inputs": [],
      "name": "voterContract",
      "outputs": [
        {
          "internalType": "contract IVoterRegistration",
          "name": "",
          "type": "address"
        }
      ],
      "stateMutability": "view",
      "type": "function",
      "constant": true
    },
    {
      "inputs": [
        {
          "internalType": "address",
          "name": "",
          "type": "address"
        }
      ],
      "name": "votesReceived",
      "outputs": [
        {
          "internalType": "uint256",
          "name": "",
          "type": "uint256"
        }
      ],
      "stateMutability": "view",
      "type": "function",
      "constant": true
    },
    {
      "inputs": [
        {
          "internalType": "address",
          "name": "_candidate",
          "type": "address"
        }
      ],
      "name": "addCandidate",
      "outputs": [],
      "stateMutability": "nonpayable",
      "type": "function"
    },
    {
      "inputs": [
        {
          "internalType": "address",
          "name": "_voter",
          "type": "address"
        },
        {
          "internalType": "address",
          "name": "_candidate",
          "type": "address"
        }
      ],
      "name": "voteFor",
      "outputs": [],
      "stateMutability": "nonpayable",
      "type": "function"
    },
    {
      "inputs": [
        {
          "internalType": "address",
          "name": "_candidate",
          "type": "address"
        }
      ],
      "name": "getVotes",
      "outputs": [
        {
          "internalType": "uint256",
          "name": "",
          "type": "uint256"
        }
      ],
      "stateMutability": "view",
      "type": "function",
      "constant": true
    },
    {
      "inputs": [],
      "name": "getAllCandidates",
      "outputs": [
        {
          "internalType": "address[]",
          "name": "",
          "type": "address[]"
        }
      ],
      "stateMutability": "view",
      "type": "function",
      "constant": true
    }
  ],
  "bytecode": "0x60806040523480156200001157600080fd5b50604051620012c3380380620012c3833981810160405281019062000037919062000118565b336000806101000a81548173ffffffffffffffffffffffffffffffffffffffff021916908373ffffffffffffffffffffffffffffffffffffffff16021790555081600160006101000a81548173ffffffffffffffffffffffffffffffffffffffff021916908373ffffffffffffffffffffffffffffffffffffffff16021790555080600260006101000a81548173ffffffffffffffffffffffffffffffffffffffff021916908373ffffffffffffffffffffffffffffffffffffffff1602179055505050620001a7565b60008151905062000112816200018d565b92915050565b600080604083850312156200012c57600080fd5b60006200013c8582860162000101565b92505060206200014f8582860162000101565b9150509250929050565b600062000166826200016d565b9050919050565b600073ffffffffffffffffffffffffffffffffffffffff82169050919050565b620001988162000159565b8114620001a457600080fd5b50565b61110c80620001b76000396000f3fe608060405234801561001057600080fd5b506004361061009e5760003560e01c8063753309c411610066578063753309c41461016d5780639ab24eb014610189578063b4a3a162146101b9578063e6610bc8146101d7578063f851a440146101f55761009e565b806309eef43e146100a35780632e6997fe146100d357806330c880c3146100f15780633477ee2e146101215780633acd75f814610151575b600080fd5b6100bd60048036038101906100b89190610a53565b610213565b6040516100ca9190610dbd565b60405180910390f35b6100db610233565b6040516100e89190610d9b565b60405180910390f35b61010b60048036038101906101069190610a53565b6102c1565b6040516101189190610ece565b60405180910390f35b61013b60048036038101906101369190610ae1565b6102d9565b6040516101489190610d80565b60405180910390f35b61016b60048036038101906101669190610a53565b610318565b005b61018760048036038101906101829190610a7c565b6105ed565b005b6101a3600480360381019061019e9190610a53565b61095b565b6040516101b09190610ece565b60405180910390f35b6101c16109a4565b6040516101ce9190610dd8565b60405180910390f35b6101df6109ca565b6040516101ec9190610df3565b60405180910390f35b6101fd6109f0565b60405161020a9190610d80565b60405180910390f35b60036020528060005260406000206000915054906101000a900460ff1681565b606060058054806020026020016040519081016040528092919081815260200182805480156102b757602002820191906000526020600020905b8160009054906101000a900473ffffffffffffffffffffffffffffffffffffffff1673ffffffffffffffffffffffffffffffffffffffff168152602001906001019080831161026d575b5050505050905090565b60046020528060005260406000206000915090505481565b600581815481106102e957600080fd5b906000526020600020016000915054906101000a900473ffffffffffffffffffffffffffffffffffffffff1681565b60008054906101000a900473ffffffffffffffffffffffffffffffffffffffff1673ffffffffffffffffffffffffffffffffffffffff163373ffffffffffffffffffffffffffffffffffffffff16146103a6576040517f08c379a000000000000000000000000000000000000000000000000000000000815260040161039d90610e8e565b60405180910390fd5b600260009054906101000a900473ffffffffffffffffffffffffffffffffffffffff1673ffffffffffffffffffffffffffffffffffffffff1663d51b9e93826040518263ffffffff1660e01b81526004016104019190610d80565b60206040518083038186803b15801561041957600080fd5b505afa15801561042d573d6000803e3d6000fd5b505050506040513d601f19601f820116820180604052508101906104519190610ab8565b610490576040517f08c379a000000000000000000000000000000000000000000000000000000000815260040161048790610eae565b60405180910390fd5b60005b600580549050811015610586578173ffffffffffffffffffffffffffffffffffffffff16600582815481106104f1577f4e487b7100000000000000000000000000000000000000000000000000000000600052603260045260246000fd5b9060005260206000200160009054906101000a900473ffffffffffffffffffffffffffffffffffffffff1673ffffffffffffffffffffffffffffffffffffffff161415610573576040517f08c379a000000000000000000000000000000000000000000000000000000000815260040161056a90610e6e565b60405180910390fd5b808061057e90611019565b915050610493565b506005819080600181540180825580915050600190039060005260206000200160009091909190916101000a81548173ffffffffffffffffffffffffffffffffffffffff021916908373ffffffffffffffffffffffffffffffffffffffff16021790555050565b600160009054906101000a900473ffffffffffffffffffffffffffffffffffffffff1673ffffffffffffffffffffffffffffffffffffffff1663c3c5a547836040518263ffffffff1660e01b81526004016106489190610d80565b60206040518083038186803b15801561066057600080fd5b505afa158015610674573d6000803e3d6000fd5b505050506040513d601f19601f820116820180604052508101906106989190610ab8565b6106d7576040517f08c379a00000000000000000000000000000000000000000000000000000000081526004016106ce90610e0e565b60405180910390fd5b600260009054906101000a900473ffffffffffffffffffffffffffffffffffffffff1673ffffffffffffffffffffffffffffffffffffffff1663d51b9e93826040518263ffffffff1660e01b81526004016107329190610d80565b60206040518083038186803b15801561074a57600080fd5b505afa15801561075e573d6000803e3d6000fd5b505050506040513d601f19601f820116820180604052508101906107829190610ab8565b6107c1576040517f08c379a00000000000000000000000000000000000000000000000000000000081526004016107b890610e2e565b60405180910390fd5b600360008373ffffffffffffffffffffffffffffffffffffffff1673ffffffffffffffffffffffffffffffffffffffff16815260200190815260200160002060009054906101000a900460ff161561084e576040517f08c379a000000000000000000000000000000000000000000000000000000000815260040161084590610e4e565b60405180910390fd5b6001600360008473ffffffffffffffffffffffffffffffffffffffff1673ffffffffffffffffffffffffffffffffffffffff16815260200190815260200160002060006101000a81548160ff0219169083151502179055506001600460008373ffffffffffffffffffffffffffffffffffffffff1673ffffffffffffffffffffffffffffffffffffffff16815260200190815260200160002060008282546108f69190610f33565b925050819055508073ffffffffffffffffffffffffffffffffffffffff168273ffffffffffffffffffffffffffffffffffffffff167f113ed09b18bb8fe2635af16f21d67464502d920ff1015abfe08dbe9a2971a7e260405160405180910390a35050565b6000600460008373ffffffffffffffffffffffffffffffffffffffff1673ffffffffffffffffffffffffffffffffffffffff168152602001908152602001600020549050919050565b600260009054906101000a900473ffffffffffffffffffffffffffffffffffffffff1681565b600160009054906101000a900473ffffffffffffffffffffffffffffffffffffffff1681565b60008054906101000a900473ffffffffffffffffffffffffffffffffffffffff1681565b600081359050610a2381611091565b92915050565b600081519050610a38816110a8565b92915050565b600081359050610a4d816110bf565b92915050565b600060208284031215610a6557600080fd5b6000610a7384828501610a14565b91505092915050565b60008060408385031215610a8f57600080fd5b6000610a9d85828601610a14565b9250506020610aae85828601610a14565b9150509250929050565b600060208284031215610aca57600080fd5b6000610ad884828501610a29565b91505092915050565b600060208284031215610af357600080fd5b6000610b0184828501610a3e565b91505092915050565b6000610b168383610b22565b60208301905092915050565b610b2b81610f89565b82525050565b610b3a81610f89565b82525050565b6000610b4b82610ef9565b610b558185610f11565b9350610b6083610ee9565b8060005b83811015610b91578151610b788882610b0a565b9750610b8383610f04565b925050600181019050610b64565b5085935050505092915050565b610ba781610f9b565b82525050565b610bb681610fd1565b82525050565b610bc581610ff5565b82525050565b6000610bd8601683610f22565b91507f4e6f742061207265676973746572656420766f746572000000000000000000006000830152602082019050919050565b6000610c18601183610f22565b91507f496e76616c69642063616e6469646174650000000000000000000000000000006000830152602082019050919050565b6000610c58601783610f22565b91507f566f7465722068617320616c726561647920766f7465640000000000000000006000830152602082019050919050565b6000610c98601783610f22565b91507f43616e64696461746520616c72656164792061646465640000000000000000006000830152602082019050919050565b6000610cd8602283610f22565b91507f4f6e6c792061646d696e2063616e20706572666f726d2074686973206163746960008301527f6f6e0000000000000000000000000000000000000000000000000000000000006020830152604082019050919050565b6000610d3e601a83610f22565b91507f4e6f74206120726567697374657265642063616e6469646174650000000000006000830152602082019050919050565b610d7a81610fc7565b82525050565b6000602082019050610d956000830184610b31565b92915050565b60006020820190508181036000830152610db58184610b40565b905092915050565b6000602082019050610dd26000830184610b9e565b92915050565b6000602082019050610ded6000830184610bad565b92915050565b6000602082019050610e086000830184610bbc565b92915050565b60006020820190508181036000830152610e2781610bcb565b9050919050565b60006020820190508181036000830152610e4781610c0b565b9050919050565b60006020820190508181036000830152610e6781610c4b565b9050919050565b60006020820190508181036000830152610e8781610c8b565b9050919050565b60006020820190508181036000830152610ea781610ccb565b9050919050565b60006020820190508181036000830152610ec781610d31565b9050919050565b6000602082019050610ee36000830184610d71565b92915050565b6000819050602082019050919050565b600081519050919050565b6000602082019050919050565b600082825260208201905092915050565b600082825260208201905092915050565b6000610f3e82610fc7565b9150610f4983610fc7565b9250827fffffffffffffffffffffffffffffffffffffffffffffffffffffffffffffffff03821115610f7e57610f7d611062565b5b828201905092915050565b6000610f9482610fa7565b9050919050565b60008115159050919050565b600073ffffffffffffffffffffffffffffffffffffffff82169050919050565b6000819050919050565b6000610fdc82610fe3565b9050919050565b6000610fee82610fa7565b9050919050565b600061100082611007565b9050919050565b600061101282610fa7565b9050919050565b600061102482610fc7565b91507fffffffffffffffffffffffffffffffffffffffffffffffffffffffffffffffff82141561105757611056611062565b5b600182019050919050565b7f4e487b7100000000000000000000000000000000000000000000000000000000600052601160045260246000fd5b61109a81610f89565b81146110a557600080fd5b50565b6110b181610f9b565b81146110bc57600080fd5b50565b6110c881610fc7565b81146110d357600080fd5b5056fea2646970667358221220db4a327a8589bf13a3aae4af80eb27c2b2c7f8a8070828f2d9ad8a63d95cbae464736f6c63430008000033",
  "immutableReferences": {},
  "source": "// SPDX-License-Identifier: MIT\r\npragma solidity ^0.8.0;\r\n\r\ninterface IVoterRegistration {\r\n    function isRegistered(address _voter) external view returns (bool);\r\n}\r\n\r\ninterface ICandidateRegistration {\r\n    function isCandidate(address _candidate) external view returns (bool);\r\n}\r\n\r\ncontract Voting {\r\n    address public admin;\r\n    IVoterRegistration public voterContract;\r\n    ICandidateRegistration public candidateContract;\r\n\r\n    mapping(address => bool) public hasVoted;\r\n    mapping(address => uint256) public votesReceived;\r\n    address[] public candidates;\r\n\r\n    event VoteCast(address indexed voter, address indexed candidate);\r\n\r\n    constructor(address _voterContract, address _candidateContract) {\r\n        admin = msg.sender;\r\n        voterContract = IVoterRegistration(_voterContract);\r\n        candidateContract = ICandidateRegistration(_candidateContract);\r\n    }\r\n\r\n    modifier onlyAdmin() {\r\n        require(msg.sender == admin, \"Only admin can perform this action\");\r\n        _;\r\n    }\r\n\r\n    function addCandidate(address _candidate) external onlyAdmin {\r\n        require(candidateContract.isCandidate(_candidate), \"Not a registered candidate\");\r\n        for (uint i = 0; i < candidates.length; i++) {\r\n            require(candidates[i] != _candidate, \"Candidate already added\");\r\n        }\r\n        candidates.push(_candidate);\r\n    }\r\n\r\n    //  Gasless vote function (only one, used by relayer)\r\n    function voteFor(address _voter, address _candidate) external {\r\n        require(voterContract.isRegistered(_voter), \"Not a registered voter\");\r\n        require(candidateContract.isCandidate(_candidate), \"Invalid candidate\");\r\n        require(!hasVoted[_voter], \"Voter has already voted\");\r\n\r\n        hasVoted[_voter] = true;\r\n        votesReceived[_candidate] += 1;\r\n\r\n        emit VoteCast(_voter, _candidate);\r\n    }\r\n\r\n    function getVotes(address _candidate) external view returns (uint256) {\r\n        return votesReceived[_candidate];\r\n    }\r\n\r\n    function getAllCandidates() external view returns (address[] memory) {\r\n        return candidates;\r\n    }\r\n}\r\n",
  "sourcePath": "G:\\E-Vote\\contracts\\Voting.sol",
  "compiler": {
    "name": "solc",
    "version": "0.8.0+commit.c7dfd78e.Emscripten.clang"
  },
  "schemaVersion": "3.4.16",
  "updatedAt": "2025-05-29T08:47:53.010Z",
  "networkType": "ethereum",
  "devdoc": {
    "kind": "dev",
    "methods": {},
    "version": 1
  },
  "userdoc": {
    "kind": "user",
    "methods": {},
    "version": 1
  }
}